2512509433532900 01PER2025-05-05400 PA                                   108200000000EST 000000000372025-05-040524HAYMON         CINDY      MMM126354498                                 0000000003701        
2512509433532900 01PER2025-05-05400 PA                                   280000000000EST 000000000372025-05-030524HAYMON         CINDY      MMM126354498                                -0000000003701        
2512509523462900 01PER2025-05-05401 PU                                   108200000000EST 000000000112025-05-020524PETERSON       GERALD     JLX804399148                                 0000000001101        
2512509523462900 01PER2025-05-05401 PU                                   280000000000EST-000000000112025-05-050524PETERSON       GERALD     JLX804399148                                -0000000001101        
2512511302502900 01PER2025-05-05441 PA                                   108200000000EST 000000000752025-05-050525FARBER         TINA       R58676967                                    0000000007501        
2512511302502900 01PER2025-05-05441 PA                                   280000000000EST-000000000752025-05-050525FARBER         TINA       R58676967                                   -0000000007501        
2512511302502900 01PER2025-05-05442 PA                                   108200000000EST 000000112942025-05-050525CLINE          TAMBRIA    JUG0084035MB                                 0000001129401        
2512511302502900 01PER2025-05-05442 PA                                   280000000000EST-000000112942025-05-050525CLINE          TAMBRIA    JUG0084035MB                                -0000001129401        
2512510250592900 01PER2025-05-05416APA                                   108200000000EST 000000000462025-05-050525PLUMMER        SHARON     R50987402                                    0000000004601        
2512510250592900 01PER2025-05-05416APA                                   280000000000EST-000000000462025-05-050525PLUMMER        SHARON     R50987402                                   -0000000004601        
2512510250592900 01PER2025-05-05416BPA                                   108200000000EST 000000007222025-05-050525ENGLISH        LAZARO     R26307597                                    0000000072201        
2512510250592900 01PER2025-05-05416BPA                                   280000000000EST-000000007222025-05-050525ENGLISH        LAZARO     R26307597                                   -0000000072201        
2512510250592900 01PER2025-05-05417 PA                                   108200000000EST 000000000512025-05-010525BENNETT        JIMMY      UGG92165366                                  0000000005101        
2512510250592900 01PER2025-05-05417 PA                                   280000000000EST-000000000512025-05-050525BENNETT        JIMMY      UGG92165366                                 -0000000005101        
2512510535592900 01PER2025-05-05418 PA                                   108200000000EST 000000000072025-05-050625WILKS          PENROD     XDD343A67351                                 0000000000701        
2512510535592900 01PER2025-05-05418 PA                                   280000000000EST-000000000072025-05-050625WILKS          PENROD     XDD343A67351                                -0000000000701        
2512510535592900 01PER2025-05-05419 PA                                   108200000000EST 000000190972025-05-050625FIELDS         SHERRY     MSM805236575                                 0000001909701        
2512510535592900 01PER2025-05-05419 PA                                   280000000000EST-000000190972025-05-050625FIELDS         SHERRY     MSM805236575                                -0000001909701        
2512510535592900 01PER2025-05-05420 PA                                   108200000000EST 000000000522025-05-050625SMITH          ROBERT     R58198595                                    0000000005201        
2512510535592900 01PER2025-05-05420 PA                                   280000000000EST-000000000522025-05-050525SMITH          ROBERT     R58198595                                   -0000000005201        
2512510535592900 01PER2025-05-05421 PA                                   108200000000EST 000000000312025-05-050525DINKINS        REED       XSM813313390                                 0000000003101        
2512510535592900 01PER2025-05-05421 PA                                   280000000000EST-000000000312025-05-050525DINKINS        REED       XSM813313390                                -0000000003101        
2512510535592900 01PER2025-05-05422 PA                                   108200000000EST 000000000782025-05-050525RAGSDALE       MICHAEL    CYL830805019                                 0000000007801        
2512510535592900 01PER2025-05-05422 PA                                   280000000000EST-000000000782025-05-050525RAGSDALE       MICHAEL    CYL830805019                                -0000000007801        
2512510535592900 01PER2025-05-05423 PA                                   108200000000EST 000000000342025-05-050525FURROW         CECIL      W6M148W14364                                 0000000003401        
2512510535592900 01PER2025-05-05423 PA                                   280000000000EST-000000000342025-05-050525FURROW         CECIL      W6M148W14364                                -0000000003401        
2512510535592900 01PER2025-05-05424 PA                                   108200000000EST 000000000332025-05-050525STANDRIDGE     AUDREY     R57982989                                    0000000003301        
2512510535592900 01PER2025-05-05424 PA                                   280000000000EST-000000000332025-05-050525STANDRIDGE     AUDREY     R57982989                                   -0000000003301        
2512510535592900 01PER2025-05-05425 PA                                   108200000000EST 000000000472025-05-050525SPOONER        MILTON     XDD991A50395                                 0000000004701        
2512511170392900 01PER2025-05-05438CPA                                   280000000000EST 000000009172025-05-050525MARURE-LOPEZ   ANAHI      W9F238W14558                                -0000000091701        
2512511170392900 01PER2025-05-05438DPA                                   108200000000EST 000000013352025-05-050525HERNANADEZ     GRACIELA   W9F366W14561                                 0000000133501        
2512511170392900 01PER2025-05-05438DPA                                   280000000000EST 000000013352025-05-050525HERNANADEZ     GRACIELA   W9F366W14561                                -0000000133501        
2512511170392900 01PER2025-05-05439APA                                   108200000000EST 000000000082025-05-050525COVINGTON      CREW       SBN016206                                    0000000000801        
2512511170392900 01PER2025-05-05439APA                                   280000000000EST 000000000082025-05-050525COVINGTON      CREW       SBN016206                                   -0000000000801        
2512511170392900 01PER2025-05-05439BPA                                   108200000000EST 000000000152025-05-050525NEUBAUERN      LEVI       ADKAV3203358                                 0000000001501        
2512511170392900 01PER2025-05-05439BPA                                   280000000000EST 000000000152025-05-050525NEUBAUERN      LEVI       ADKAV3203358                                -0000000001501        
2512511170392900 01PER2025-05-05440APA                                   108200000000EST 000000002872025-05-050525HARRISON       GREGORY    R61588435                                    0000000028701        
2512511170392900 01PER2025-05-05440APA                                   280000000000EST 000000002872025-05-050525HARRISON       GREGORY    R61588435                                   -0000000028701        
2512511170392900 01PER2025-05-05440BPA                                   108200000000EST 000000000302025-05-050525EDGEWORTH      GINA       R59838557                                    0000000003001        
2512511170392900 01PER2025-05-05440BPA                                   280000000000EST 000000000302025-05-050525EDGEWORTH      GINA       R59838557                                   -0000000003001        
2512511170392900 01PER2025-05-05440CPA                                   108200000000EST 000000000992025-05-050525PITTS          MELVIN     R59524938                                    0000000009901        
2512511170392900 01PER2025-05-05440CPA                                   280000000000EST 000000000992025-05-050525PITTS          MELVIN     R59524938                                   -0000000009901        
251260738252     04UND2025-05-06500 FD487004293915                       127100000000FR  000000000092025-06-060525MITCHELL       WALKER     R59355503                         2025-05-06 0000000000001        
251260738252     04SPO2025-05-06500 FD487004293915                       277100000000FR  000000000092025-09-060525MITCHELL       WALKER     R59355503                         2025-05-06 0000000000001        
251260738252     04SPO2025-05-06500 FD487004293915                       10901       CAN 000000000092025-05-060525MITCHELL       WALKER     R59355503                         2025-05-06 0000000000001        
251260738252     04SPO2025-05-06500 FD487004293915                       127100000000CAN-000000000092025-05-060525MITCHELL       WALKER     R59355503                         2025-05-06-0000000000001        
251260738252     04SPO2025-05-06501 FD487004293915                       127100000000FR  000000001292025-05-060525STEVENSON      SHELBA     R19476876                         2025-05-06 0000000000001        
251260738252     04SPO2025-05-06501 FD487004293915                       277100000000FR  000000001292025-05-060525STEVENSON      SHELBA     R19476876                         2025-05-06 0000000000001        
251260738252     04SPO2025-05-06501 FD487004293915                       10901       CAN 000000001292025-05-060525STEVENSON      SHELBA     R19476876                         2025-05-06 0000000000001        
251260738252     04SPO2025-05-06501 FD487004293915                       127100000000CAN-000000001292025-05-060525STEVENSON      SHELBA     R19476876                         2025-05-06-0000000000001        
251260746337     04SPO2025-05-06502 FS000010268486                       127100000000FR  000000009792025-05-060525ADDERHOLT      JOHN       R57748397                         2025-05-06 0000000000001        
251260746337     04SPO2025-05-06502 FS000010268486                       277100000000FR  000000009792025-05-060525ADDERHOLT      JOHN       R57748397                         2025-05-06 0000000000001        
251260746337     04SPO2025-05-06502 FS000010268486                       102100000000CAN 000000009792025-05-060525ADDERHOLT      JOHN       R57748397                         2025-05-06 0000000000001        
251260746337     04SPO2025-05-06502 FS000010268486                       127100000000CAN-000000009792025-05-060525ADDERHOLT      JOHN       R57748397                         2025-05-06-0000000000001        
251261448127     04PER2022-09-16200 PA                                   280000000000FR  000000003752025-05-060525HARDING        SEAN       DUS100586914CL1616511204          2025-05-06 0000000000001        
251261448127     04PER2022-09-16200 PA                                   279000000000FR -000000003752025-05-060525HARDING        SEAN       DUS100586914                      2025-05-06-0000000000001        
251261448127     04PER2022-09-22304 PA                                   280000000000FR  000000001462025-05-060525LINGO          JARED      BOA287594730                      2025-05-06 0000000000001        
251261448127     04PER2022-09-22304 PA                                   279000000000FR -000000001462025-05-060525LINGO          JARED      BOA287594730                      2025-05-06-0000000000001        
251261448127     04PER2022-09-22308 PA                                   280000000000FR  000000001462025-05-060525BROWN          MAREKO     AQT602769597                      2025-05-06 0000000000001       